:02000002B0004C
:1040000000400B0066580B00000006000C00050283
:084010000401B41400000000DB
:0440180040550B0004
:10401C00034613F8012B002AFBD1181A01387047FC
:10402C0009480A49884208B505D0094A824202D09B
:10403C00121A01F0BBF90748074A0021121A01F0C5
:10404C00DDF9014808BD00BF20E60320CC570B006A
:10405C008CE603208CE60320F0E7032070B5074EB6
:10406C00074C01F069F8A41BA4080025AC4200D150
:10407C0070BD56F8043B98470135F7E784570B00A1
:10408C00A8570B0000F022B808B500F007FABDE8FD
:10409C00084001F009B800F071BC00F06FBC00F0F2
:1040AC0075BC0078B0FA80F04009704701230370AA
:1040BC00704708B548B1B0F1005F01D301F06AF95F
:1040CC00BDE808408000FFF7E6BF08BD08B5012138
:1040DC00082001F0A1F80121072001F09DF8012131
:1040EC00062001F099F80121052001F095F8012135
:1040FC00042001F091F80021112001F08DF800212D
:10410C00112001F089F80021122001F085F800211E
:10411C00132001F081F8BDE808400021102001F0C7
:10412C007BB8431E002BB8BF5B42013390FBF3F00E
:10413C00704700002DE9F041DFF8C0802E4D0026BD
:10414C000C27D8F80030B342F9DD07FB06F42B68D6
:10415C001B591A681046FFF7E4FFC1B290B201F088
:10416C006CF82B681B595A681046FFF7DAFFC1B27E
:10417C0090B201F062F82B681B599A681046FFF751
:10418C00D0FFC1B290B201F058F82B681B59DA6815
:10419C001046FFF7C6FFC1B290B201F04EF82B6883
:1041AC001B591A691046FFF7BCFFC1B290B201F05F
:1041BC0044F8642000F00AFC2B681B590021188875
:1041CC0001F03BF82B681B590021988801F035F859
:1041DC002B681B590021188901F02FF82B681B59EB
:1041EC000021988901F029F82B681B590021188AA5
:1041FC0001F023F80136A4E798E60320A4E6032097
:10420C0010B50446006818B1A168091AFFF747FFFA
:10421C00204610BD2DE9F84FD0E9008993466FF088
:10422C006045A9EB0802B5EBA20F06468A464FEA99
:10423C00A20302D11E4801F0B0F8012B1F4638BF73
:10424C000127DB1931D2AB4228BF2B461F4638461B
:10425C00FFF72FFFAAEB0804E0421CBFDBF800308D
:10426C000351002C054603DD2246414601F0ACF813
:10427C00A9EB0A090434B9F1000F2C4404DD4A46B9
:10428C005146204601F092F84C44B8F1000F05D08D
:10429C00B1684046A1EB0801FFF701FFC6E90054E5
:1042AC0005EB8705B560BDE8F88F2F46CFE700BF5B
:1042BC0054550B0010B50A46D0E90114A14203462F
:1042CC0006D009B112680A605A6804325A6010BDEF
:1042DC00FFF7A0FFFBE7814210B51346A1EB0004EA
:1042EC0005D001462246184601F06EF8034618190F
:1042FC0010BD70B5D1E90036F61A00230446C0E9AA
:10430C0000338360B0100D46FFF7D3FEC4E9000004
:10431C000644A6600246D5E90001FFF7DCFF6060A9
:10432C00204670BD2DE9F74FD0E90079364BA9EB4B
:10433C000705AD105D43354B9D4288460646114638
:10434C0002D1334801F029F8012D2A4638BF012249
:10435C00AD18A8EB070427D245B39D4228BF1D46D4
:10436C000C2068430191FFF796FE019982461AEBE7
:10437C00040001D0FFF7BDFF51463C46A0454FF06D
:10438C00000301F10C0B13D041B122680A60626882
:10439C004A60A2688A60C4E9013323602046FFF7B3
:1043AC002FFF0C345946E9E71D46D9E7AA46DEE74C
:1043BC00D8464FF0000B4C45434608F10C0811D081
:1043CC00236848F80C3C636848F8083CA36848F834
:1043DC00043C2046C4E901BBC4F800B0FFF710FF51
:1043EC000C34E8E737B1B1680193C91B3846FFF7C5
:1043FC0056FE019B0C2000FB05A5C6E900A3B56089
:10440C0003B0BDE8F08F00BFABAAAAAAAAAAAA0A59
:10441C0054550B002DE9F041A2EB010883681746B7
:10442C0002689B1A984504460E461BD9194B9845B1
:10443C0002D9194800F0B1FF4FEAA800FFF739FE86
:10444C003946024605463046FFF745FF206818B14D
:10445C00A168091AFFF723FE25604544C4E90155FC
:10446C00BDE8F0814568AD1AA84508D839463046F4
:10447C00FFF731FF63689842F2D06060F0E70D44BB
:10448C0029463046FFF727FF626839462846FFF772
:10449C0022FFF2E7FCFFFF7F6E550B0037B51020B3
:1044AC0000F0E4FE044608B1FFF744FE112000F0D2
:1044BC00DDFE002851D04F48019401A9FFF7FAFE08
:1044CC004C48019401A9FFF7F5FE4A48019401A953
:1044DC00FFF7F0FE4748019401A9FFF7EBFE0194AA
:1044EC00454C444801A9FFF7E5FED4E90103984285
:1044FC002DD010B13F49FFF7FCFE63680C336360AD
:10450C00002211463B48FFF785FF3C4A13680133F4
:10451C0013603B4B00244FF448701C6000F056FABB
:10452C002146042000F089FE2146052000F085FE7E
:10453C002146062000F081FE2146072000F07DFE7A
:10454C002146082003B0BDE8304000F076BE01469D
:10455C00284A2046FFF7E6FED2E7122000F086FE3E
:10456C000446B8B1264C2348236801A904330193AF
:10457C00FFF7A0FE20680430012180B200F05DFE40
:10458C002368013323604FF4487003B0BDE830401A
:10459C0000F01CBA132000F069FE40B3184D2B68D4
:1045AC00052B1ADD2246214612482C60FFF732FFFC
:1045BC002146042000F041FE2146052000F03DFE7E
:1045CC002146062000F039FE2146072000F035FE7A
:1045DC002146082000F031FED5E70323054801935E
:1045EC0001A9FFF767FE2B6801332B60CBE703B003
:1045FC0030BD00BFA8E6032098E60320A4E6032004
:10460C00B4E603200B4B0C4A10B50024C3E900445C
:10461C009A60032000F01EF92146012000F02AF9CF
:10462C00064BC3E900449C60054BC3E900449C6005
:10463C0010BD00BF8CE603200000FFFF98E60320AE
:10464C00A8E6032008B5024B1B685B6C019308BD00
:10465C004802030008B5024B1B685B68019308BD58
:10466C001802030008B5024B1B685B69019308BD77
:10467C001802030008B5024B1B689B68019308BD28
:10468C002C02030008B5024B1B68DB68019308BDC4
:10469C002C02030008B5024B1B681B69019308BD73
:1046AC002C02030008B5024B1B685B69019308BD23
:1046BC002C02030008B5024B1B681B6A019308BD52
:1046CC002802030008B5024B1B685B6A019308BD06
:1046DC002802030008B5024B1B689B6A019308BDB6
:1046EC002802030008B5024B1B68DB6A019308BD66
:1046FC002802030008B5024B1B681B6B019308BD15
:10470C002802030008B5024B1B685B6B019308BDC4
:10471C002802030008B5024B1B681B6C019308BDF3
:10472C002802030008B5024B1B685B69019308BDA6
:10473C006402030008B5024B1B689B68019308BD1B
:10474C006802030008B5024B1B68DB68019308BDC7
:10475C006802030008B5024B1B68DB69019308BDB6
:10476C003002030008B5024B1B681B6A019308BD9D
:10477C003002030008B5024B1B68DB68019308BDCF
:10478C003C02030008B5024B1B681B69019308BD72
:10479C003C02030008B5024B1B685B69019308BD22
:1047AC003C02030008B5024B1B689B69019308BDD2
:1047BC003C02030008B5024B1B68DB69019308BD82
:1047CC003C02030008B5024B1B681B6A019308BD31
:1047DC003C02030008B5024B1B689B6A019308BDA1
:1047EC003C02030008B5024B1B681B6C019308BD0F
:1047FC003C02030008B5024B1B681B68019308BD03
:10480C004C02030008B5024B1B681B69019308BDE1
:10481C004C02030008B5024B1B685B69019308BD91
:10482C004C02030008B5024B1B689B69019308BD41
:10483C004C02030008B5024B1B68DB69019308BDF1
:10484C004C02030008B5024B1B681B6A019308BDA0
:10485C004C02030008B5024B1B685B68019308BD52
:10486C002002030008B5024B1B685B69019308BD6D
:10487C002002030008B5024B1B68DB6A019308BDDC
:10488C002002030008B5034B1B68D3F88830019352
:10489C0008BD00002002030008B5034B1B68D3F8C9
:1048AC009430019308BD00002002030008B5024BB0
:1048BC001B68DB6B019308BD4402030008B5024B77
:1048CC001B685B68019308BD4002030008B5024BEE
:1048DC001B689B68019308BD4002030008B5024B9E
:1048EC001B68DB68019308BD4002030008B5024B4E
:1048FC001B681B69019308BD4002030008B5024BFD
:10490C001B685B69019308BD4002030008B5024BAC
:10491C001B689B69019308BD4002030008B5024B5C
:10492C001B68DB69019308BD4002030008B5024B0C
:10493C001B681B6A019308BD4002030008B5024BBB
:10494C001B681B6B019308BD4002030008B5024BAA
:10495C001B685B6B019308BD4002030008B5024B5A
:10496C001B681B6C019308BD4002030008B5024B89
:10497C001B685B6C019308BD4002030008B5024B39
:10498C001B681B68019308BD1C02030008B5024B91
:10499C001B685B68019308BD1C02030008B5024B41
:1049AC001B68DB6A019308BD1C02030008B5024BAF
:1049BC001B681B6C019308BD1C02030008B5024B5D
:1049CC001B685B6C019308BD1C0203000021FFF700
:1049DC0049BF0000024800230360FFF733BE00BF4D
:1049EC00B8E60320002240681146FFF79FBF002263
:1049FC0040681146FFF7AABF40680022FFF79EBF30
:104A0C004068002281F00101FFF788BF0023406855
:104A1C001A461946FFF77ABF002340681A46194612
:104A2C00FFF76CBF002240681146FFF75FBF002202
:104A3C0040681146FFF74ABF406800220221FFF789
:104A4C004DBF002340681A46FFF738BF024B0322C4
:104A5C005A60024A1A607047BCE60320A8550B0046
:104A6C007047F8B5064615460C468F18BC4206D062
:104A7C00336814F8011B9B6830469847F6E72846C4
:104A8C00F8BD007C0022FFF715BE007C0021FFF76B
:104A9C0019BE007C0021FFF71DBE007C0021FFF732
:104AAC0021BE007C0021FFF725BE10B51421044661
:104ABC00FFF7F5FA204610BD38B5044615464FF4FD
:104ACC007A730022C4E90123094B21740846236040
:104ADC002946FFF71FFEBF3008D16B69DB0705D5F0
:104AEC006868FFF753FFE868FFF750FF204638BDB2
:104AFC00E4550B00704710B518210446FFF7CFFAA8
:104B0C00204610BDF0B5037D062B8DB00E4600F18E
:104B1C0004074FF0000412D000F1080515F8011D30
:104B2C000A22304600F043F9AF42044419D0002C5D
:104B3C00F4D02E21304600F037F90444EEE72F2351
:104B4C006A4639460A208DF80040FFF7EBFD6846AF
:104B5C00FFF75EFA33680246DB68694630469847D1
:104B6C00044620460DB0F0BD10B5054B044611228D
:104B7C0040F8043B002100F041FC204610BD00BF72
:104B8C000C560B000346074A10B543F8042B01F1F1
:104B9C00100251F8044B43F8044B9142F9D10A78B6
:104BAC001A7010BD0C560B0010B59DF8084044EA65
:104BBC00032343EA024242EA016104234160037584
:104BCC0010BD000007B5064B0360CB7800938B78C3
:104BDC004A780978FFF7E8FF03B05DF804FB00BFE3
:104BEC000C560B00014B024A1A607047C4E60320B6
:104BFC0018560B00002340681A46FFF75FBE40684A
:104C0C0000220221FFF76ABE002240681146FFF71E
:104C1C005DBE002240681146FFF768BE0023406865
:104C2C001A461946FFF76ABE002340681A46194611
:104C3C00FFF76CBE40680021FFF790BE4068002172
:104C4C00FFF794BE4068002281F00101FFF766BEB9
:104C5C0040680022FFF772BE002240681146FFF741
:104C6C0075BE002240681146FFF760BE2DE9F04387
:104C7C0095B014460D460746FFF776FF00211C221F
:104C8C000DA8009100F0BAFB40230C9320466B4614
:104C9C000CAA0021FFF756FD044600284BD1024612
:104CAC0001216868FFF722FE0221804622466868CF
:104CBC00FFF71CFE009E81462146002E3BD00029AA
:104CCC0039D17368022B03D00A2B11D0F669F4E7A3
:104CDC00B8F1000FFAD0716906A8043107ADFFF7DF
:104CEC0071FF0FCD3C1D0FC42B6823704146EDE7BF
:104CFC00B9F1000FEAD07469102201A800F07EFB14
:104D0C0006238DF8143001AD04F10803183418682B
:104D1C0059682A4603C20833A3421546F7D101A9A4
:104D2C0006A807ADFFF72EFF0FCD3C1D0FC42B6857
:104D3C0023704946CAE70098FFF7FCFC384615B0CB
:104D4C00BDE8F083024B034A1A6000225A60704798
:104D5C00C8E6032024560B00F8B506460D468F18FE
:104D6C000024BD420CD0336815F8011B9B683046FB
:104D7C009847031E01DB1C44F3E7002C08BF1C46BC
:104D8C002046F8BD13B50446084659B10191FFF70A
:104D9C003FF923680199DB680246204602B0BDE862
:104DAC001040184702B010BD03689B68184730B517
:104DBC008BB00023012A8DF8243098BF0A2209AC4D
:104DCC000D46B1FBF2F101FB125303F0FF03092B6B
:104DDC0094BF30333733DBB2AA4204F8013DEFD92C
:104DEC002146FFF7CFFF0BB030BD0000014B002276
:104DFC009A607047D0E6032010B50446084621702F
:104E0C00FFF7A8FC00236360204610BD054B02226F
:104E1C001A60054B054A9A600020C3E90000FFF7B1
:104E2C0019BD00BFECE60320E0E603200000FFFF05
:104E3C00024B1A68024B1A60704700BF20E6032031
:104E4C00F0E6032070474174704708B5007CFFF70B
:104E5C00C1FC20EAE07008BD08B5007CFFF792FCAD
:104E6C0020EAE07008BD08B5007CFFF79BFC40EA27
:104E7C00E07008BD08B5007CFFF78CFC40EAE070E0
:104E8C0008BD007CFFF796BC37B5457C04462DB1B8
:104E9C00207C03B0BDE83040FFF76CBC007C019176
:104EAC00FFF798FC00280199F2DC284603B030BDCE
:104EBC0010B514210446FFF7F2F8204610BD00008F
:104ECC0010B54FF47A730446084611460022C4E923
:104EDC000123044B2360012320746374FFF782FCCD
:104EEC00204610BD7C560B004174704770477047CC
:104EFC0008B50021007CFFF795FC40EAE07008BD86
:104F0C0008B50121007CFFF78DFC40EAE07008BD7C
:104F1C0008B5007CFFF77EFC20EAE07008BD08B500
:104F2C00007CFFF76FFC20EAE07008BD13B5044667
:104F3C00007C0191FFF76EFC0028019901DC607C7C
:104F4C0020B1207CFFF776FC20EAE07002B010BDA7
:104F5C00007CFFF777BC10B514210446FFF79FF8CF
:104F6C00204610BD10B54FF47A7304460846002154
:104F7C00C4E90113044B23600123207463741146AC
:104F8C00FFF738FC204610BDAC560B0010B51422B0
:104F9C000446002100F032FA204610BD10B50F4C2B
:104FAC0088B003A8FFF7F2FF2178BFF35B8F11F0F5
:104FBC0001010FD120460191FFF773F8019948B117
:104FCC0003AA0748FFF7CEFF2046FFF76FF8054806
:104FDC0000F0E6F9024808B010BD00BFF4E603206B
:104FEC00F8E60320F94E0B00002240681146FFF74B
:104FFC007DBC002240681146FFF798BC0022406837
:10500C001146FFF7A3BC40680022FFF797BC40682D
:10501C00002281F00101FFF781BC002340681A4691
:10502C001946FFF773BC002340681A461946FFF770
:10503C0065BC002240681146FFF748BC406800225E
:10504C000221FFF74BBC002340681A46FFF736BC21
:10505C00024B04225A60024A1A6070470CE7032084
:10506C00DC560B00014B1860704700BF24E6032090
:10507C0008B50B4B43B1FFF791FF03681B699847C9
:10508C00002801DDAFF30080064B43B100F05CF962
:10509C0003681B699847002801DDAFF3008008BD49
:1050AC00000000000000000008B5FFF7E1FFFFF76B
:1050BC00D9FA014B186008BD28E703200548064AB9
:1050CC00064908B5121A00F071F9054B054A1A6029
:1050DC0008BD00BF00F4032004F4032038580B0073
:1050EC0000F403201E1C279A07B5002300931A46D0
:1050FC006FF07701FFF7D0FB03B05DF804FB000005
:10510C0007B543880A2B08D0502B0BD1094B1B68D1
:10511C004BB103B05DF804EB1847FFF7E5FF03B0A4
:10512C005DF804FB002300931A466FF07701FFF73C
:10513C00B3FBF4E718E7032010B512480021FFF782
:10514C003DFC114B1A68114B9A42114B0CBF0122BA
:10515C0000221A7001D0FFF7B1FFFFF77BFA04466B
:10516C0000F054F90B4B13B12046AFF30080002133
:10517C000848FFF79BFBBDE8104007480021FFF7EC
:10518C0081BB00BF71500B0000F403201E1C279A3A
:10519C0014E70320000000000D510B00232813B569
:1051AC0002D9002002B010BDA0F10B03022B1AD8BB
:1051BC00174C2178BFF35B8F11F001010BD1204606
:1051CC000191FEF76EFF019928B11248FFF714FE0A
:1051DC002046FEF76BFF0F4B1878FFF7C3FA002839
:1051EC00DFD10120DEE7012809D800F06DF800219D
:1051FC00007CFFF787FA80F00100C0B2D2E70938D3
:10520C000128EED800F0A0F8007CFFF7DBFAF2E7FB
:10521C001CE7032020E70320232838B504460D465D
:10522C000AD8FF2908D0FFF7B9FF28B12946204634
:10523C00BDE83840FFF71EBA38BD38B504460D46F8
:10524C00FFF720FAFF2810D0062804D84D2323FAA4
:10525C0000F0C30709D42046FFF7A0FF28B1294668
:10526C002046BDE83840FFF715BA38BD10B50446E6
:10527C00FFF708FA031FDBB2012B08D92046FFF712
:10528C008DFF20B12046BDE81040FFF70BBA00207F
:10529C0010BD704738B50A4B0360012304464361C7
:1052AC000849202000F074F8202560600549A560AD
:1052BC00284600F06DF8C4E90305204638BD00BF50
:1052CC001800010010570B0030B50E4D2978BFF3B4
:1052DC005B8F11F0010487B011D12846FEF7E1FE77
:1052EC0068B16846FFF7D6FF6A4621460648FFF7C5
:1052FC00E3FB2846FEF7DAFE044800F051F80248BA
:10530C0007B030BD2CE7032030E703209F520B0081
:10531C007047000038B5044614252A46002100F0D9
:10532C006DF825804025074925812846258200F007
:10533C002FF804496060284600F02AF8E060204607
:10534C0038BD00BF10570B0030B50E4D2978BFF398
:10535C005B8F11F0010487B011D12846FEF7A1FE36
:10536C0068B101A8FFF7D6FF01AA21460648FFF74E
:10537C00A7FD2846FEF79AFE044800F011F80248F3
:10538C0007B030BD44E7032048E703201D530B0052
:10539C00FEF783BE08B5FFF701FB08B5FFF7FEFA71
:1053AC00002301461A46184600F05EB80A449142A2
:1053BC0000F1FF3300D1704710B511F8014B03F821
:1053CC00014F9142F9D110BD884210B501EB020496
:1053DC0002D98442234607D8431EA14208D011F8B3
:1053EC00012B03F8012FF8E7024401468A4200D151
:1053FC0010BD13F8014D02F8014DF7E702440346C6
:10540C00934200D1704703F8011BF9E738B5104BF4
:10541C001D68AB6B0446B3B91820FFF7AFFA024610
:10542C00A86320B90B4B0C484221FFF7BFFA0B497C
:10543C000B4BC0E900130B4B83600B2383810021C2
:10544C000120C2E90401AB6B00221C615A6138BD1A
:10545C0024E6032011570B0028570B000E33CDAB5D
:10546C0034126DE6ECDE05002DE9F843DFF8B88068
:10547C000646D8F800001F460D46914600F056F837
:10548C00254B1C6834B9254C1C60254B13B11B688B
:10549C00C4F8883063681F2B07DDD8F8000000F0D3
:1054AC0047F84FF0FF30BDE8F8834EB3D4F88800CE
:1054BC0088B91C4B23B9D8F8000000F038F8F0E795
:1054CC004FF48470FFF75AFA0028F4D00023C0E997
:1054DC004033C4F88800636840F8239001229A4056
:1054EC0000EB8301D0F800311343C0F80031022ED9
:1054FC00C1F8807002BFD0F804311343C0F80431F6
:10550C006368D8F800005A1C0233626044F82350D8
:10551C0000F00EF80020C6E7E8E703205CE7032064
:10552C000000000089490B0088E603207047704793
:10553C00704700002D400B0069400B0091400B00A0
:10554C0095400B0000000000766563746F723A3A68
:10555C005F4D5F7265616C6C6F635F696E736572D2
:10556C00740063616E6E6F74206372656174652084
:10557C007374643A3A766563746F72206C61726707
:10558C006572207468616E206D61785F73697A65ED
:10559C002829000000000000000000004F4A0B000A
:1055AC00454A0B003B4A0B00314A0B00254A0B00C5
:1055BC00194A0B00414C0B00494C0B000D4A0B00D7
:1055CC00054A0B00FB490B00F1490B00794C0B0011
:1055DC0000000000000000006D4A0B00B74A0B00F1
:1055EC008F4A0B006F4A0B00974A0B009F4A0B0027
:1055FC00A74A0B00AF4A0B0000000000000000009F
:10560C00114B0B00014B0B00034B0B006170700036
:10561C000000000000000000014C0B000B4C0B00C4
:10562C00154C0B001F4C0B00294C0B00354C0B0080
:10563C00414C0B00494C0B00514C0B005D4C0B00CA
:10564C00654C0B006F4C0B00794C0B0025592D252C
:10565C006D2D25645425483A254D3A2553257A005D
:10566C0061736374696D6500000000000000000048
:10567C00514E0B00BD4E0B00954E0B00654D0B00B3
:10568C00654E0B00814E0B00734E0B008F4E0B00C2
:10569C00534E0B00574E0B000000000000000000A2
:1056AC00FB4E0B00634F0B00394F0B00654D0B008D
:1056BC002B4F0B00FD4E0B000D4F0B005D4F0B00E5
:1056CC001D4F0B00F54E0B00000000000000000009
:1056DC0053500B0049500B003F500B00F54F0B0083
:1056EC0033500B0027500B00414C0B00494C0B0066
:1056FC001B500B0013500B0009500B00FF4F0B00FD
:10570C00794C0B00005245454E54206D616C6C6F0A
:10571C006320737563636565646564002F746D70D5
:10572C002F6A656E6B696E732D4743432D31302D97
:10573C00706970656C696E652D34385F323032304B
:10574C00313132345F313630363138303633392FEF
:10575C007372632F6E65776C69622F6E65776C69F7
:10576C00622F6C6962632F7374646C69622F72614F
:10577C006E642E630000000011460B00E1490B0023
:10578C00594A0B00F14B0B00514D0B00F94D0B001E
:0C579C00194E0B003D4E0B005D500B0041
:1057A800040000001400000003000000474E5500EC
:1057B800FEADF4DC154C678273502015702E1BF378
:0457C8009D32FADB39
:1057CC006C560B0028E603200000000000000000CF
:1057DC0000000000000000000000000000000000BD
:1057EC0000000000000000000000000000000000AD
:1057FC00000000000000000000000000000000009D
:10580C00000000000000000000000000000000008C
:10581C00000000000000000000000000000000007C
:0C582C000000000000000000ECE703207A
:04583800000000006C
:1058420000000102030405060708090A0B0C0D0EED
:105852000F101112131415161718191A1B1C1D1EDE
:045862001F202800DB
:04586600785634122A
:04000003B000401CED
:00000001FF
